:100000000C945C000C9479000C9479000C947900A9
:100010000C9479000C9479000C9479000C9479007C
:100020000C9479000C9479000C9479000C9479006C
:100030000C9479000C9479000C9479000C9479005C
:100040000C940B010C9479000C9479000C947900B9
:100050000C9479000C9479000C9479000C9479003C
:100060000C9479000C947900000000080002010053
:100070000003040700000000000000000000000072
:10008000250028002B0000000000240027002A0083
:10009000040404040404040402020202020203032E
:1000A0000303030301020408102040800102040836
:1000B000102001020408102011241FBECFEFD8E049
:1000C000DEBFCDBF11E0A0E0B1E0EAE9F4E002C09C
:1000D00005900D92A230B107D9F721E0A2E0B1E07E
:1000E00001C01D92AD30B207E1F70E9455010C949A
:1000F0004B020C94000090E0FC01EC55FF4F249162
:10010000FC01E057FF4F8491882399F090E0880F1D
:10011000991FFC01EA57FF4FA591B491FC01E458E7
:10012000FF4F859194918FB7F894EC91E22BEC936B
:100130008FBF089590E0FC01E859FF4F3491FC0116
:10014000EC55FF4F2491FC01E057FF4FE491EE2363
:1001500009F43BC0332339F1333091F038F43130B6
:10016000A9F0323001F584B58F7D12C0373091F09F
:100170003830A1F03430B9F4809180008F7D03C015
:10018000809180008F77809380000DC084B58F7739
:1001900084BD09C08091B0008F7703C08091B0000A
:1001A0008F7D8093B000F0E0EE0FFF1FE458FF4F0B
:1001B000A591B4918FB7F894EC91611103C020958B
:1001C0002E2301C02E2B2C938FBF08953FB7F89498
:1001D0008091070190910801A0910901B0910A0155
:1001E00026B5A89B05C02F3F19F00196A11DB11D92
:1001F0003FBFBA2FA92F982F8827820F911DA11DCD
:10020000B11DBC01CD0142E0660F771F881F991F09
:100210004A95D1F708951F920F920FB60F921124AD
:100220002F933F938F939F93AF93BF93809103013D
:1002300090910401A0910501B09106013091020155
:1002400023E0230F2D3720F40196A11DB11D05C019
:1002500026E8230F0296A11DB11D20930201809371
:10026000030190930401A0930501B09306018091CE
:10027000070190910801A0910901B0910A0101962E
:10028000A11DB11D8093070190930801A09309015E
:10029000B0930A01BF91AF919F918F913F912F91A0
:1002A0000F900FBE0F901F901895789484B58260C0
:1002B00084BD84B5816084BD85B5826085BD85B50A
:1002C000816085BD80916E00816080936E00109288
:1002D0008100809181008260809381008091810003
:1002E0008160809381008091800081608093800094
:1002F0008091B10084608093B1008091B0008160F2
:100300008093B00080917A00846080937A0080911D
:100310007A00826080937A0080917A008160809375
:100320007A0080917A00806880937A001092C100F0
:1003300089E00E947B001092000101E710E020E0BC
:10034000E22E20E0F22E8091000120E4829FC00185
:100350001124836080937C0080917A008064809374
:100360007A0080917A0086FDFCCFC0917800809160
:100370007900D0E0D82BD0930C01C0930B01D7FDAE
:100380002396D595C795D595C79589E00E947B00A2
:10039000209711F460E004C0CF3FD10529F461E05B
:1003A00089E00E949A0042C0F80184918330F9F0FC
:1003B00048F48130B9F08230A1F584B5806284BD03
:1003C000C8BD34C08730E9F0883019F1843049F570
:1003D00080918000806280938000D0938B00C093D6
:1003E0008A0024C084B5806884BDC7BD1FC08091C9
:1003F0008000806880938000D0938900C09388003B
:1004000015C08091B00080688093B000C093B300A5
:100410000DC08091B00080628093B000C093B400A2
:1004200005C0C038D1050CF0BACFB4CF0E94E600A9
:100430002B013C0184EF882E99249394A12CB12C9C
:100440000E94E600DC01CB0184199509A609B709D1
:10045000883E9340A105B10558F0F1E08F1A91084C
:10046000A108B10828EE420E23E0521E611C711C47
:1004700081149104A104B10419F789E00E947B0062
:1004800060E089E00E949A00E114F10409F45BCF76
:0A0490000E94000058CFF894FFCF3F
:02049A0001005F
:00000001FF
